:1000000071C000008EC000008CC000008AC00000DB
:1000100088C0000086C0000084C0000082C00000CC
:1000200080C000007EC000007CC000007AC00000DC
:1000300078C0000076C0000074C0000072C00000EC
:1000400070C000006EC000006CC000006AC00000FC
:1000500068C0000066C0000064C0000062C000000C
:1000600060C000005EC000005CC000005AC000001C
:1000700058C0000056C0000054C0000052C000002C
:1000800050C000004EC000004CC000004AC000003C
:1000900048C0000046C0000044C0000042C000004C
:1000A00040C000003EC000003CC000003AC000005C
:1000B00038C0000036C0000034C0000032C000006C
:1000C00030C000002EC000002CC000002AC000007C
:1000D00028C0000026C0000024C0000022C000008C
:1000E00020C0000011241FBECFEFD1E2DEBFCDBF84
:1000F00000E00CBF12E0A0E0B2E0E2ECF6E000E0CD
:100100000BBF02C007900D92A230B107D9F722E0D1
:10011000A2E0B2E001C01D92AE30B207E1F73ED2DC
:10012000CEC26ECF87B1876087B987B1806F87B93C
:1001300088B1887F88B988B18F7088B9089586E6BC
:100140009EE00197F1F700004098419880E388B95C
:10015000429AEFEFF7E43197F1F700C000004298C0
:10016000E6E6FEE03197F1F700004098419888B943
:10017000429AEFEFF7E43197F1F700C000004298A0
:10018000E6E6FEE03197F1F700004098419888B923
:10019000429A8FEF97E40197F1F700C00000429870
:1001A000E6E6FEE03197F1F700004098419880E2E2
:1001B00088B9429A8FEF97E40197F1F700C00000E9
:1001C0004298089598B19F7098B998B1282F207FD0
:1001D000922B98B940984198429AEFEFF7E4319703
:1001E000F1F700C00000429898B19F7098B998B19B
:1001F0008295807F892B88B940984198429A8FEFE9
:1002000097E40197F1F700C000004298089597DF46
:1002100086E69EE00197F1F7000088E2D3DF81E0F7
:10022000D1DF86E0CFDF8EE0CDDF80E8CBCF089551
:1002300080E8C8CF0895823069F018F4813031F039
:100240000895833059F0843069F008958FE7860F60
:10025000B9CF08958FEB860FB5CF089583E9860F48
:10026000B1CF089583ED860FADCF0895CF93C42FFE
:10027000E2DF88B18F7088B988B19C2F907F892B7D
:1002800088B9409A4198429A8FEF97E40197F1F725
:1002900000C00000429888B18F7088B988B1C295BB
:1002A000C07FC82BC8B9409A4198429A8FEF97E413
:1002B0000197F1F700C000004298CF9108950F9385
:1002C0001F93CF93DF93D82FC62FFA014081442389
:1002D00061F08F010F5F1F4F6C2F8D2FC7DFCF5F36
:1002E000F80141918F014111F7CFDF91CF911F911B
:1002F0000F910895EF92FF920F931F93CF93DF9387
:10030000D82FC62F7A01890196DFFF204CF4F19493
:10031000E194F10840E052E06C2F8D2FD0DFCF5FE9
:10032000DD2311F0C11102C083DF03C06C2F8D2FBC
:1003300082DF0530110509F0ADC0C70160E177E249
:1003400088D1AB01405D5F4F50930302409302029E
:100350006C2F8D2F8BDFCF5FC70168EE73E079D1F3
:10036000AB0170930502609304029B01ADECBCEC01
:1003700083D19695879596958795969587959C01B7
:10038000220F331F880F991F880F991F880F991FFD
:10039000820F931F481B590B405D5F4F50930D0216
:1003A00040930C026C2F8D2F61DFCF5F03C00330B1
:1003B000110559F5C70164E670E04BD1AB017093AC
:1003C0000502609304029B01ADECBCEC55D19695FF
:1003D000879596958795969587959C01220F331F53
:1003E000880F991F880F991F880F991F820F931FDD
:1003F000481B590B405D5F4F509309024093080220
:100400006C2F8D2F33DFCF5F04C00230110509F050
:1004100046C0C7016AE070E01CD1AB0170930502D1
:10042000609304029B01ADECBCEC26D196958795B8
:1004300096958795969587959C01220F331F880F77
:10044000991F880F991F880F991F820F931F481BB0
:10045000590B405D5F4F50930702409306026C2F8B
:100460008D2F04DFCF5FC7016AE070E0F2D0AC01EE
:10047000405D5F4F50930B0240930A026C2F8D2F0B
:10048000F5DECF5F0630110574F045E46C2F8D2F3B
:10049000EDDE09C00430110509F089CF5DCF0130D0
:1004A000110581F7E0CFDF91CF911F910F91FF9060
:1004B000EF90089580B3817F80BB81B3817F81BB42
:1004C000089580B38F7380BB81B38F7381BBE7E0E6
:1004D000F1E080818E7F8083E8E0F1E080818E7F93
:1004E00080830895EAE7F0E08081866880838081D8
:1004F00087788083EBE7F0E08081807B8083ECE786
:10050000F0E08081806480838081807E8083808130
:100510008062808380B7806880BF0895883070F4DF
:10052000EAE7F0E09081977F9083ECE7F0E090813C
:10053000977090839081892B8083089598EF980F0E
:10054000993068F4EAE7F0E0908198609083ECE7F6
:10055000F0E09081977090839081892B808308953B
:10056000EAE7F0E0808180648083089580917A00DA
:1005700082958170089510927C0010927B001092F9
:100580007A000895CF93CADFEBDFF0DF8823E9F329
:10059000C0917900F0DF8C2FCF9108958BDF91DF30
:1005A000A1DFC0DD34DE8FE590E03DD083E0EADFFF
:1005B000E82E82E0E7DFF82E81E0E4DF082F86E016
:1005C000E1DF182F87E0DEDFD82F88E0DBDFC82FE0
:1005D0004E2D50E023E030E061E081E08BDE4F2DD6
:1005E00050E023E030E065E081E084DE402F50E021
:1005F00023E030E069E081E07DDE412F50E023E040
:1006000030E061E082E076DE4D2F50E023E030E024
:1006100065E082E06FDE4C2F50E023E030E069E0DF
:1006200082E068DEC3CFE1EDF0E010829093D50068
:100630008093D400A2EDB0E08C918F738C938C9159
:1006400086608C9380818861808380818B7F8083AA
:10065000089597FB072E16F4009406D077FD08D076
:100660001AD007FC05D03EF4909581959F4F0895D0
:10067000709561957F4F0895A29FB001B39FC0010F
:10068000A39F700D811D1124911DB29F700D811DBE
:100690001124911D0895AA1BBB1B51E107C0AA1F7D
:1006A000BB1FA617B70710F0A61BB70B881F991F13
:1006B0005A95A9F780959095BC01CD010895F894BD
:0206C000FFCF6A
:0206C2002D0009
:00000001FF
