S01400004578706572696D656E742D312E7372656391
S113000033C0000039C0000037C0000035C0000014
S113001033C0000031C000002FC000002DC000001C
S11300202BC0000029C0000027C0000025C000002C
S113003023C0000021C000001FC000001DC000003C
S11300401BC0000019C0000017C0000015C000004C
S113005013C0000011C000000FC000000DC000005C
S11300600BC0000009C0000011241FBECFEFD8E070
S1130070DEBFCDBF09D01EC0C3CF569A5E98089587
S11300805E9A08955E980895F8DFFADF2FEF83ED06
S113009090E3215080409040E1F700C00000F2DF7F
S11300A02FEF83ED90E3215080409040E1F700C0B2
S10B00B00000EBCFF894FFCF30
S9030000FC
