S01400004578706572696D656E742D342E737265638E
S113000033C000004CC000004AC0000048C00000DB
S113001046C0000044C0000042C0000040C00000D0
S11300203EC000003CC000003AC0000038C00000E0
S113003036C0000034C0000032C0000030C00000F0
S11300402EC000002CC000002AC0000028C0000000
S113005026C0000024C0000022C0000020C0000010
S11300601EC000001CC0000011241FBECFEFD8E04A
S1130070DEBFCDBF11E0A0E0B1E0E6ECF3E002C0EA
S113008005900D92A233B107D9F721E0A2E3B1E0C4
S113009001C01D92A233B207E1F788D092C1B0CF5C
S11300A0AF92BF92CF92DF92EF92FF920F931F9382
S11300B0CF93DF93CDB7DEB7A0970FB6F894DEBF2A
S11300C00FBECDBF80E2E0E0F1E0DE0111960190C9
S11300D00D928A95E1F749814423A9F101E010E0EA
S11300E00F2EFFE0CF2ED12CF02DEE24E394F12C33
S11300F0C80101970F9754F02FEFC21AD20A6C2D42
S113010081E01BD188E1C1D0F80109C057018FEF0C
S1130110A81AB80A6E2D81E010D1F80175019FEF7D
S113012021EE84E0915020408040E1F700C00000BF
S113013081E090E08C0F9D1FE80FF91F40810F5F55
S11301401F4F4111D5CFA0960FB6F894DEBF0FBE56
S1130150CDBFDF91CF911F910F91FF90EF90DF9072
S1130160CF90BF90AF900895CF93DF93CDB7DEB714
S113017061970FB6F894DEBF0FBECDBF81E1E0E218
S1130180F1E0DE01119601900D928A95E1F7AE013E
S11301904F5F5F4F61E082E0F9D061960FB6F8944B
S11301A0DEBF0FBECDBFDF91CF9108951AD092D09C
S11301B0C1D0A2D0D9DF2FEF87EA91E62150804049
S11301C09040E1F700C00000B5D096D069DF2FEF72
S11301D087EA91E6215080409040E1F700C000009A
S11301E0E7CF84B1876084B98AB1806F8AB985B159
S11301F0887F85B98BB18F708BB908958FE99FE0A3
S11302000197F1F700C0000028982A9880E38BB981
S1130210299AEFE1FEE43197F1F700C00000299834
S1130220EFE9FFE03197F1F700C0000028982A9821
S11302308BB9299AEFE1FEE43197F1F700C0000091
S11302402998EFE9FFE03197F1F700C00000289802
S11302502A988BB9299A8FE19EE40197F1F700C09F
S113026000002998EFE9FFE03197F1F700C00000A2
S113027028982A9880E28BB9299A8FE19EE4019705
S1130280F1F700C00000299808959BB19F709BB9B5
S11302909BB1282F207F922B9BB928982A98299AC2
S11302A0EFE1FEE43197F1F700C0000029989BB11B
S11302B09F709BB99BB18295807F892B8BB92898BD
S11302C02A98299A8FE19EE40197F1F700C0000073
S11302D02998089593DF8FE99FE00197F1F700C013
S11302E0000088E2D2DF81E0D0DF86E0CEDF8EE05E
S11302F0CCDF80E8CACF089580E8C7CF0895823064
S113030069F018F4813031F00895833059F0843065
S113031069F008958FE7860FB8CF08958FEB860FA5
S1130320B4CF089583E9860FB0CF089583ED860F87
S1130330ACCF089581E0A9CF0895CF93C42FDFDF18
S11303408BB18F708BB98BB19C2F907F892B8BB91C
S1130350289A2A98299A8FE19EE40197F1F700C020
S1130360000029988BB18F708BB98BB1C295C07F77
S1130370C82BCBB9289A2A98299A8FE19EE4019731
S1130380F1F700C000002998CF9108950F931F93AF
S1130390CF93DF93D82FC62FFA014081442361F015
S11303A08F010F5F1F4F6C2F8D2FC7DFCF5FF801B9
S11303B041918F014111F7CFDF91CF911F910F919F
S10903C00895F894FFCF3C
S11303C6437261736820436F75727365202D2045EF
S11303D66D6265646465642053797374656D730036
S11303E6652D59616E7472612041636164656D792E
S10503F6000001
S9030000FC
